{
  "_format": "hh-sol-artifact-1",
  "contractName": "DestinationToken",
  "sourceName": "contracts/DestinationToken.sol",
  "abi": [
    {
      "inputs": [
        {
          "internalType": "address",
          "name": "_bridge",
          "type": "address"
        }
      ],
      "stateMutability": "nonpayable",
      "type": "constructor"
    },
    {
      "anonymous": false,
      "inputs": [
        {
          "indexed": true,
          "internalType": "address",
          "name": "owner",
          "type": "address"
        },
        {
          "indexed": true,
          "internalType": "address",
          "name": "spender",
          "type": "address"
        },
        {
          "indexed": false,
          "internalType": "uint256",
          "name": "value",
          "type": "uint256"
        }
      ],
      "name": "Approval",
      "type": "event"
    },
    {
      "anonymous": false,
      "inputs": [
        {
          "indexed": true,
          "internalType": "address",
          "name": "previousOwner",
          "type": "address"
        },
        {
          "indexed": true,
          "internalType": "address",
          "name": "newOwner",
          "type": "address"
        }
      ],
      "name": "OwnershipTransferred",
      "type": "event"
    },
    {
      "anonymous": false,
      "inputs": [
        {
          "indexed": true,
          "internalType": "address",
          "name": "from",
          "type": "address"
        },
        {
          "indexed": true,
          "internalType": "address",
          "name": "to",
          "type": "address"
        },
        {
          "indexed": false,
          "internalType": "uint256",
          "name": "value",
          "type": "uint256"
        }
      ],
      "name": "Transfer",
      "type": "event"
    },
    {
      "inputs": [
        {
          "internalType": "address",
          "name": "owner",
          "type": "address"
        },
        {
          "internalType": "address",
          "name": "spender",
          "type": "address"
        }
      ],
      "name": "allowance",
      "outputs": [
        {
          "internalType": "uint256",
          "name": "",
          "type": "uint256"
        }
      ],
      "stateMutability": "view",
      "type": "function"
    },
    {
      "inputs": [
        {
          "internalType": "address",
          "name": "spender",
          "type": "address"
        },
        {
          "internalType": "uint256",
          "name": "amount",
          "type": "uint256"
        }
      ],
      "name": "approve",
      "outputs": [
        {
          "internalType": "bool",
          "name": "",
          "type": "bool"
        }
      ],
      "stateMutability": "nonpayable",
      "type": "function"
    },
    {
      "inputs": [
        {
          "internalType": "address",
          "name": "account",
          "type": "address"
        }
      ],
      "name": "balanceOf",
      "outputs": [
        {
          "internalType": "uint256",
          "name": "",
          "type": "uint256"
        }
      ],
      "stateMutability": "view",
      "type": "function"
    },
    {
      "inputs": [],
      "name": "bridge",
      "outputs": [
        {
          "internalType": "address",
          "name": "",
          "type": "address"
        }
      ],
      "stateMutability": "view",
      "type": "function"
    },
    {
      "inputs": [
        {
          "internalType": "uint256",
          "name": "amount",
          "type": "uint256"
        }
      ],
      "name": "burn",
      "outputs": [],
      "stateMutability": "nonpayable",
      "type": "function"
    },
    {
      "inputs": [
        {
          "internalType": "address",
          "name": "_account",
          "type": "address"
        },
        {
          "internalType": "uint256",
          "name": "_amount",
          "type": "uint256"
        }
      ],
      "name": "burnFrom",
      "outputs": [],
      "stateMutability": "nonpayable",
      "type": "function"
    },
    {
      "inputs": [],
      "name": "decimals",
      "outputs": [
        {
          "internalType": "uint8",
          "name": "",
          "type": "uint8"
        }
      ],
      "stateMutability": "view",
      "type": "function"
    },
    {
      "inputs": [
        {
          "internalType": "address",
          "name": "spender",
          "type": "address"
        },
        {
          "internalType": "uint256",
          "name": "subtractedValue",
          "type": "uint256"
        }
      ],
      "name": "decreaseAllowance",
      "outputs": [
        {
          "internalType": "bool",
          "name": "",
          "type": "bool"
        }
      ],
      "stateMutability": "nonpayable",
      "type": "function"
    },
    {
      "inputs": [
        {
          "internalType": "address",
          "name": "spender",
          "type": "address"
        },
        {
          "internalType": "uint256",
          "name": "addedValue",
          "type": "uint256"
        }
      ],
      "name": "increaseAllowance",
      "outputs": [
        {
          "internalType": "bool",
          "name": "",
          "type": "bool"
        }
      ],
      "stateMutability": "nonpayable",
      "type": "function"
    },
    {
      "inputs": [
        {
          "internalType": "address",
          "name": "_recipient",
          "type": "address"
        },
        {
          "internalType": "uint256",
          "name": "_amount",
          "type": "uint256"
        }
      ],
      "name": "mint",
      "outputs": [],
      "stateMutability": "nonpayable",
      "type": "function"
    },
    {
      "inputs": [],
      "name": "name",
      "outputs": [
        {
          "internalType": "string",
          "name": "",
          "type": "string"
        }
      ],
      "stateMutability": "view",
      "type": "function"
    },
    {
      "inputs": [],
      "name": "owner",
      "outputs": [
        {
          "internalType": "address",
          "name": "",
          "type": "address"
        }
      ],
      "stateMutability": "view",
      "type": "function"
    },
    {
      "inputs": [],
      "name": "renounceOwnership",
      "outputs": [],
      "stateMutability": "nonpayable",
      "type": "function"
    },
    {
      "inputs": [
        {
          "internalType": "address",
          "name": "_bridge",
          "type": "address"
        }
      ],
      "name": "setBridge",
      "outputs": [],
      "stateMutability": "nonpayable",
      "type": "function"
    },
    {
      "inputs": [],
      "name": "symbol",
      "outputs": [
        {
          "internalType": "string",
          "name": "",
          "type": "string"
        }
      ],
      "stateMutability": "view",
      "type": "function"
    },
    {
      "inputs": [],
      "name": "totalSupply",
      "outputs": [
        {
          "internalType": "uint256",
          "name": "",
          "type": "uint256"
        }
      ],
      "stateMutability": "view",
      "type": "function"
    },
    {
      "inputs": [
        {
          "internalType": "address",
          "name": "to",
          "type": "address"
        },
        {
          "internalType": "uint256",
          "name": "amount",
          "type": "uint256"
        }
      ],
      "name": "transfer",
      "outputs": [
        {
          "internalType": "bool",
          "name": "",
          "type": "bool"
        }
      ],
      "stateMutability": "nonpayable",
      "type": "function"
    },
    {
      "inputs": [
        {
          "internalType": "address",
          "name": "from",
          "type": "address"
        },
        {
          "internalType": "address",
          "name": "to",
          "type": "address"
        },
        {
          "internalType": "uint256",
          "name": "amount",
          "type": "uint256"
        }
      ],
      "name": "transferFrom",
      "outputs": [
        {
          "internalType": "bool",
          "name": "",
          "type": "bool"
        }
      ],
      "stateMutability": "nonpayable",
      "type": "function"
    },
    {
      "inputs": [
        {
          "internalType": "address",
          "name": "newOwner",
          "type": "address"
        }
      ],
      "name": "transferOwnership",
      "outputs": [],
      "stateMutability": "nonpayable",
      "type": "function"
    }
  ],
  "bytecode": "0x60806040523480156200001157600080fd5b5060405162002c5638038062002c56833981810160405281019062000037919062000484565b6040518060400160405280601081526020017f44657374696e6174696f6e546f6b656e000000000000000000000000000000008152506040518060400160405280600781526020017f442d546f6b656e000000000000000000000000000000000000000000000000008152508160039080519060200190620000bb929190620003bd565b508060049080519060200190620000d4929190620003bd565b505050620000f7620000eb6200022060201b60201c565b6200022860201b60201c565b600073ffffffffffffffffffffffffffffffffffffffff168173ffffffffffffffffffffffffffffffffffffffff1614156200016a576040517f08c379a000000000000000000000000000000000000000000000000000000000815260040162000161906200055d565b60405180910390fd5b80600660006101000a81548173ffffffffffffffffffffffffffffffffffffffff021916908373ffffffffffffffffffffffffffffffffffffffff160217905550620002196040518060400160405280601881526020017f42726964676520616464726573732073657420746f2025730000000000000000815250600660009054906101000a900473ffffffffffffffffffffffffffffffffffffffff16620002ee60201b62000dd91760201c565b50620006be565b600033905090565b6000600560009054906101000a900473ffffffffffffffffffffffffffffffffffffffff16905081600560006101000a81548173ffffffffffffffffffffffffffffffffffffffff021916908373ffffffffffffffffffffffffffffffffffffffff1602179055508173ffffffffffffffffffffffffffffffffffffffff168173ffffffffffffffffffffffffffffffffffffffff167f8be0079c531659141344cd1fd0a4f28419497f9722a3daafe3b4186f6b6457e060405160405180910390a35050565b6200039082826040516024016200030792919062000529565b6040516020818303038152906040527f319af333000000000000000000000000000000000000000000000000000000007bffffffffffffffffffffffffffffffffffffffffffffffffffffffff19166020820180517bffffffffffffffffffffffffffffffffffffffffffffffffffffffff83818316178352505050506200039460201b60201c565b5050565b60008151905060006a636f6e736f6c652e6c6f679050602083016000808483855afa5050505050565b828054620003cb9062000605565b90600052602060002090601f016020900481019282620003ef57600085556200043b565b82601f106200040a57805160ff19168380011785556200043b565b828001600101855582156200043b579182015b828111156200043a5782518255916020019190600101906200041d565b5b5090506200044a91906200044e565b5090565b5b80821115620004695760008160009055506001016200044f565b5090565b6000815190506200047e81620006a4565b92915050565b6000602082840312156200049757600080fd5b6000620004a7848285016200046d565b91505092915050565b620004bb816200059b565b82525050565b6000620004ce826200057f565b620004da81856200058a565b9350620004ec818560208601620005cf565b620004f7816200066a565b840191505092915050565b600062000511601d836200058a565b91506200051e826200067b565b602082019050919050565b60006040820190508181036000830152620005458185620004c1565b9050620005566020830184620004b0565b9392505050565b60006020820190508181036000830152620005788162000502565b9050919050565b600081519050919050565b600082825260208201905092915050565b6000620005a882620005af565b9050919050565b600073ffffffffffffffffffffffffffffffffffffffff82169050919050565b60005b83811015620005ef578082015181840152602081019050620005d2565b83811115620005ff576000848401525b50505050565b600060028204905060018216806200061e57607f821691505b602082108114156200063557620006346200063b565b5b50919050565b7f4e487b7100000000000000000000000000000000000000000000000000000000600052602260045260246000fd5b6000601f19601f8301169050919050565b7f42726964676520616464726573732063616e6e6f74206265207a65726f000000600082015250565b620006af816200059b565b8114620006bb57600080fd5b50565b61258880620006ce6000396000f3fe608060405234801561001057600080fd5b50600436106101215760003560e01c8063715018a6116100ad578063a457c2d711610071578063a457c2d7146102f6578063a9059cbb14610326578063dd62ed3e14610356578063e78cea9214610386578063f2fde38b146103a457610121565b8063715018a61461027857806379cc6790146102825780638da5cb5b1461029e5780638dd14802146102bc57806395d89b41146102d857610121565b8063313ce567116100f4578063313ce567146101c257806339509351146101e057806340c10f191461021057806342966c681461022c57806370a082311461024857610121565b806306fdde0314610126578063095ea7b31461014457806318160ddd1461017457806323b872dd14610192575b600080fd5b61012e6103c0565b60405161013b9190611c62565b60405180910390f35b61015e60048036038101906101599190611922565b610452565b60405161016b9190611c47565b60405180910390f35b61017c610475565b6040516101899190611ef2565b60405180910390f35b6101ac60048036038101906101a791906118d3565b61047f565b6040516101b99190611c47565b60405180910390f35b6101ca6104ae565b6040516101d79190611f0d565b60405180910390f35b6101fa60048036038101906101f59190611922565b6104b7565b6040516102079190611c47565b60405180910390f35b61022a60048036038101906102259190611922565b610561565b005b6102466004803603810190610241919061195e565b6106f2565b005b610262600480360381019061025d919061186e565b610706565b60405161026f9190611ef2565b60405180910390f35b61028061074e565b005b61029c60048036038101906102979190611922565b6107d6565b005b6102a66108da565b6040516102b39190611c2c565b60405180910390f35b6102d660048036038101906102d1919061186e565b610904565b005b6102e0610a95565b6040516102ed9190611c62565b60405180910390f35b610310600480360381019061030b9190611922565b610b27565b60405161031d9190611c47565b60405180910390f35b610340600480360381019061033b9190611922565b610c11565b60405161034d9190611c47565b60405180910390f35b610370600480360381019061036b9190611897565b610c34565b60405161037d9190611ef2565b60405180910390f35b61038e610cbb565b60405161039b9190611c2c565b60405180910390f35b6103be60048036038101906103b9919061186e565b610ce1565b005b6060600380546103cf90612056565b80601f01602080910402602001604051908101604052809291908181526020018280546103fb90612056565b80156104485780601f1061041d57610100808354040283529160200191610448565b820191906000526020600020905b81548152906001019060200180831161042b57829003601f168201915b5050505050905090565b60008061045d610e75565b905061046a818585610e7d565b600191505092915050565b6000600254905090565b60008061048a610e75565b9050610497858285611048565b6104a28585856110d4565b60019150509392505050565b60006012905090565b6000806104c2610e75565b9050610556818585600160008673ffffffffffffffffffffffffffffffffffffffff1673ffffffffffffffffffffffffffffffffffffffff16815260200190815260200160002060008973ffffffffffffffffffffffffffffffffffffffff1673ffffffffffffffffffffffffffffffffffffffff168152602001908152602001600020546105519190611f44565b610e7d565b600191505092915050565b3373ffffffffffffffffffffffffffffffffffffffff16600660009054906101000a900473ffffffffffffffffffffffffffffffffffffffff1673ffffffffffffffffffffffffffffffffffffffff16146105f1576040517f08c379a00000000000000000000000000000000000000000000000000000000081526004016105e890611e32565b60405180910390fd5b600073ffffffffffffffffffffffffffffffffffffffff168273ffffffffffffffffffffffffffffffffffffffff161415610661576040517f08c379a000000000000000000000000000000000000000000000000000000000815260040161065890611dd2565b60405180910390fd5b600081116106a4576040517f08c379a000000000000000000000000000000000000000000000000000000000815260040161069b90611d72565b60405180910390fd5b6106ae8282611355565b6106ee6040518060400160405280602081526020017f546f6b656e73206d696e74656420666f722025732c20616d6f756e743a20257381525083836114b5565b5050565b6107036106fd610e75565b82611554565b50565b60008060008373ffffffffffffffffffffffffffffffffffffffff1673ffffffffffffffffffffffffffffffffffffffff168152602001908152602001600020549050919050565b610756610e75565b73ffffffffffffffffffffffffffffffffffffffff166107746108da565b73ffffffffffffffffffffffffffffffffffffffff16146107ca576040517f08c379a00000000000000000000000000000000000000000000000000000000081526004016107c190611df2565b60405180910390fd5b6107d4600061172b565b565b3373ffffffffffffffffffffffffffffffffffffffff16600660009054906101000a900473ffffffffffffffffffffffffffffffffffffffff1673ffffffffffffffffffffffffffffffffffffffff1614610866576040517f08c379a000000000000000000000000000000000000000000000000000000000815260040161085d90611e32565b60405180910390fd5b600081116108a9576040517f08c379a00000000000000000000000000000000000000000000000000000000081526004016108a090611d72565b60405180910390fd5b6108b382826117f1565b6108d66040518060600160405280602181526020016125326021913983836114b5565b5050565b6000600560009054906101000a900473ffffffffffffffffffffffffffffffffffffffff16905090565b61090c610e75565b73ffffffffffffffffffffffffffffffffffffffff1661092a6108da565b73ffffffffffffffffffffffffffffffffffffffff1614610980576040517f08c379a000000000000000000000000000000000000000000000000000000000815260040161097790611df2565b60405180910390fd5b600073ffffffffffffffffffffffffffffffffffffffff168173ffffffffffffffffffffffffffffffffffffffff1614156109f0576040517f08c379a00000000000000000000000000000000000000000000000000000000081526004016109e790611e12565b60405180910390fd5b80600660006101000a81548173ffffffffffffffffffffffffffffffffffffffff021916908373ffffffffffffffffffffffffffffffffffffffff160217905550610a926040518060400160405280601c81526020017f4272696467652061646472657373207570646174656420746f20257300000000815250600660009054906101000a900473ffffffffffffffffffffffffffffffffffffffff16610dd9565b50565b606060048054610aa490612056565b80601f0160208091040260200160405190810160405280929190818152602001828054610ad090612056565b8015610b1d5780601f10610af257610100808354040283529160200191610b1d565b820191906000526020600020905b815481529060010190602001808311610b0057829003601f168201915b5050505050905090565b600080610b32610e75565b90506000600160008373ffffffffffffffffffffffffffffffffffffffff1673ffffffffffffffffffffffffffffffffffffffff16815260200190815260200160002060008673ffffffffffffffffffffffffffffffffffffffff1673ffffffffffffffffffffffffffffffffffffffff16815260200190815260200160002054905083811015610bf8576040517f08c379a0000000000000000000000000000000000000000000000000000000008152600401610bef90611eb2565b60405180910390fd5b610c058286868403610e7d565b60019250505092915050565b600080610c1c610e75565b9050610c298185856110d4565b600191505092915050565b6000600160008473ffffffffffffffffffffffffffffffffffffffff1673ffffffffffffffffffffffffffffffffffffffff16815260200190815260200160002060008373ffffffffffffffffffffffffffffffffffffffff1673ffffffffffffffffffffffffffffffffffffffff16815260200190815260200160002054905092915050565b600660009054906101000a900473ffffffffffffffffffffffffffffffffffffffff1681565b610ce9610e75565b73ffffffffffffffffffffffffffffffffffffffff16610d076108da565b73ffffffffffffffffffffffffffffffffffffffff1614610d5d576040517f08c379a0000000000000000000000000000000000000000000000000000000008152600401610d5490611df2565b60405180910390fd5b600073ffffffffffffffffffffffffffffffffffffffff168173ffffffffffffffffffffffffffffffffffffffff161415610dcd576040517f08c379a0000000000000000000000000000000000000000000000000000000008152600401610dc490611d32565b60405180910390fd5b610dd68161172b565b50565b610e718282604051602401610def929190611c84565b6040516020818303038152906040527f319af333000000000000000000000000000000000000000000000000000000007bffffffffffffffffffffffffffffffffffffffffffffffffffffffff19166020820180517bffffffffffffffffffffffffffffffffffffffffffffffffffffffff8381831617835250505050611811565b5050565b600033905090565b600073ffffffffffffffffffffffffffffffffffffffff168373ffffffffffffffffffffffffffffffffffffffff161415610eed576040517f08c379a0000000000000000000000000000000000000000000000000000000008152600401610ee490611e92565b60405180910390fd5b600073ffffffffffffffffffffffffffffffffffffffff168273ffffffffffffffffffffffffffffffffffffffff161415610f5d576040517f08c379a0000000000000000000000000000000000000000000000000000000008152600401610f5490611d52565b60405180910390fd5b80600160008573ffffffffffffffffffffffffffffffffffffffff1673ffffffffffffffffffffffffffffffffffffffff16815260200190815260200160002060008473ffffffffffffffffffffffffffffffffffffffff1673ffffffffffffffffffffffffffffffffffffffff168152602001908152602001600020819055508173ffffffffffffffffffffffffffffffffffffffff168373ffffffffffffffffffffffffffffffffffffffff167f8c5be1e5ebec7d5bd14f71427d1e84f3dd0314c0f7b2291e5b200ac8c7c3b9258360405161103b9190611ef2565b60405180910390a3505050565b60006110548484610c34565b90507fffffffffffffffffffffffffffffffffffffffffffffffffffffffffffffffff81146110ce57818110156110c0576040517f08c379a00000000000000000000000000000000000000000000000000000000081526004016110b790611d92565b60405180910390fd5b6110cd8484848403610e7d565b5b50505050565b600073ffffffffffffffffffffffffffffffffffffffff168373ffffffffffffffffffffffffffffffffffffffff161415611144576040517f08c379a000000000000000000000000000000000000000000000000000000000815260040161113b90611e72565b60405180910390fd5b600073ffffffffffffffffffffffffffffffffffffffff168273ffffffffffffffffffffffffffffffffffffffff1614156111b4576040517f08c379a00000000000000000000000000000000000000000000000000000000081526004016111ab90611cf2565b60405180910390fd5b6111bf83838361183a565b60008060008573ffffffffffffffffffffffffffffffffffffffff1673ffffffffffffffffffffffffffffffffffffffff16815260200190815260200160002054905081811015611245576040517f08c379a000000000000000000000000000000000000000000000000000000000815260040161123c90611db2565b60405180910390fd5b8181036000808673ffffffffffffffffffffffffffffffffffffffff1673ffffffffffffffffffffffffffffffffffffffff16815260200190815260200160002081905550816000808573ffffffffffffffffffffffffffffffffffffffff1673ffffffffffffffffffffffffffffffffffffffff16815260200190815260200160002060008282546112d89190611f44565b925050819055508273ffffffffffffffffffffffffffffffffffffffff168473ffffffffffffffffffffffffffffffffffffffff167fddf252ad1be2c89b69c2b068fc378daa952ba7f163c4a11628f55a4df523b3ef8460405161133c9190611ef2565b60405180910390a361134f84848461183f565b50505050565b600073ffffffffffffffffffffffffffffffffffffffff168273ffffffffffffffffffffffffffffffffffffffff1614156113c5576040517f08c379a00000000000000000000000000000000000000000000000000000000081526004016113bc90611ed2565b60405180910390fd5b6113d16000838361183a565b80600260008282546113e39190611f44565b92505081905550806000808473ffffffffffffffffffffffffffffffffffffffff1673ffffffffffffffffffffffffffffffffffffffff16815260200190815260200160002060008282546114389190611f44565b925050819055508173ffffffffffffffffffffffffffffffffffffffff16600073ffffffffffffffffffffffffffffffffffffffff167fddf252ad1be2c89b69c2b068fc378daa952ba7f163c4a11628f55a4df523b3ef8360405161149d9190611ef2565b60405180910390a36114b16000838361183f565b5050565b61154f8383836040516024016114cd93929190611cb4565b6040516020818303038152906040527f07c81217000000000000000000000000000000000000000000000000000000007bffffffffffffffffffffffffffffffffffffffffffffffffffffffff19166020820180517bffffffffffffffffffffffffffffffffffffffffffffffffffffffff8381831617835250505050611811565b505050565b600073ffffffffffffffffffffffffffffffffffffffff168273ffffffffffffffffffffffffffffffffffffffff1614156115c4576040517f08c379a00000000000000000000000000000000000000000000000000000000081526004016115bb90611e52565b60405180910390fd5b6115d08260008361183a565b60008060008473ffffffffffffffffffffffffffffffffffffffff1673ffffffffffffffffffffffffffffffffffffffff16815260200190815260200160002054905081811015611656576040517f08c379a000000000000000000000000000000000000000000000000000000000815260040161164d90611d12565b60405180910390fd5b8181036000808573ffffffffffffffffffffffffffffffffffffffff1673ffffffffffffffffffffffffffffffffffffffff1681526020019081526020016000208190555081600260008282546116ad9190611f9a565b92505081905550600073ffffffffffffffffffffffffffffffffffffffff168373ffffffffffffffffffffffffffffffffffffffff167fddf252ad1be2c89b69c2b068fc378daa952ba7f163c4a11628f55a4df523b3ef846040516117129190611ef2565b60405180910390a36117268360008461183f565b505050565b6000600560009054906101000a900473ffffffffffffffffffffffffffffffffffffffff16905081600560006101000a81548173ffffffffffffffffffffffffffffffffffffffff021916908373ffffffffffffffffffffffffffffffffffffffff1602179055508173ffffffffffffffffffffffffffffffffffffffff168173ffffffffffffffffffffffffffffffffffffffff167f8be0079c531659141344cd1fd0a4f28419497f9722a3daafe3b4186f6b6457e060405160405180910390a35050565b611803826117fd610e75565b83611048565b61180d8282611554565b5050565b60008151905060006a636f6e736f6c652e6c6f679050602083016000808483855afa5050505050565b505050565b505050565b60008135905061185381612503565b92915050565b6000813590506118688161251a565b92915050565b60006020828403121561188057600080fd5b600061188e84828501611844565b91505092915050565b600080604083850312156118aa57600080fd5b60006118b885828601611844565b92505060206118c985828601611844565b9150509250929050565b6000806000606084860312156118e857600080fd5b60006118f686828701611844565b935050602061190786828701611844565b925050604061191886828701611859565b9150509250925092565b6000806040838503121561193557600080fd5b600061194385828601611844565b925050602061195485828601611859565b9150509250929050565b60006020828403121561197057600080fd5b600061197e84828501611859565b91505092915050565b61199081611fce565b82525050565b61199f81611fe0565b82525050565b60006119b082611f28565b6119ba8185611f33565b93506119ca818560208601612023565b6119d3816120e6565b840191505092915050565b60006119eb602383611f33565b91506119f6826120f7565b604082019050919050565b6000611a0e602283611f33565b9150611a1982612146565b604082019050919050565b6000611a31602683611f33565b9150611a3c82612195565b604082019050919050565b6000611a54602283611f33565b9150611a5f826121e4565b604082019050919050565b6000611a77602083611f33565b9150611a8282612233565b602082019050919050565b6000611a9a601d83611f33565b9150611aa58261225c565b602082019050919050565b6000611abd602683611f33565b9150611ac882612285565b604082019050919050565b6000611ae0601983611f33565b9150611aeb826122d4565b602082019050919050565b6000611b03602083611f33565b9150611b0e826122fd565b602082019050919050565b6000611b26601d83611f33565b9150611b3182612326565b602082019050919050565b6000611b49603a83611f33565b9150611b548261234f565b604082019050919050565b6000611b6c602183611f33565b9150611b778261239e565b604082019050919050565b6000611b8f602583611f33565b9150611b9a826123ed565b604082019050919050565b6000611bb2602483611f33565b9150611bbd8261243c565b604082019050919050565b6000611bd5602583611f33565b9150611be08261248b565b604082019050919050565b6000611bf8601f83611f33565b9150611c03826124da565b602082019050919050565b611c178161200c565b82525050565b611c2681612016565b82525050565b6000602082019050611c416000830184611987565b92915050565b6000602082019050611c5c6000830184611996565b92915050565b60006020820190508181036000830152611c7c81846119a5565b905092915050565b60006040820190508181036000830152611c9e81856119a5565b9050611cad6020830184611987565b9392505050565b60006060820190508181036000830152611cce81866119a5565b9050611cdd6020830185611987565b611cea6040830184611c0e565b949350505050565b60006020820190508181036000830152611d0b816119de565b9050919050565b60006020820190508181036000830152611d2b81611a01565b9050919050565b60006020820190508181036000830152611d4b81611a24565b9050919050565b60006020820190508181036000830152611d6b81611a47565b9050919050565b60006020820190508181036000830152611d8b81611a6a565b9050919050565b60006020820190508181036000830152611dab81611a8d565b9050919050565b60006020820190508181036000830152611dcb81611ab0565b9050919050565b60006020820190508181036000830152611deb81611ad3565b9050919050565b60006020820190508181036000830152611e0b81611af6565b9050919050565b60006020820190508181036000830152611e2b81611b19565b9050919050565b60006020820190508181036000830152611e4b81611b3c565b9050919050565b60006020820190508181036000830152611e6b81611b5f565b9050919050565b60006020820190508181036000830152611e8b81611b82565b9050919050565b60006020820190508181036000830152611eab81611ba5565b9050919050565b60006020820190508181036000830152611ecb81611bc8565b9050919050565b60006020820190508181036000830152611eeb81611beb565b9050919050565b6000602082019050611f076000830184611c0e565b92915050565b6000602082019050611f226000830184611c1d565b92915050565b600081519050919050565b600082825260208201905092915050565b6000611f4f8261200c565b9150611f5a8361200c565b9250827fffffffffffffffffffffffffffffffffffffffffffffffffffffffffffffffff03821115611f8f57611f8e612088565b5b828201905092915050565b6000611fa58261200c565b9150611fb08361200c565b925082821015611fc357611fc2612088565b5b828203905092915050565b6000611fd982611fec565b9050919050565b60008115159050919050565b600073ffffffffffffffffffffffffffffffffffffffff82169050919050565b6000819050919050565b600060ff82169050919050565b60005b83811015612041578082015181840152602081019050612026565b83811115612050576000848401525b50505050565b6000600282049050600182168061206e57607f821691505b60208210811415612082576120816120b7565b5b50919050565b7f4e487b7100000000000000000000000000000000000000000000000000000000600052601160045260246000fd5b7f4e487b7100000000000000000000000000000000000000000000000000000000600052602260045260246000fd5b6000601f19601f8301169050919050565b7f45524332303a207472616e7366657220746f20746865207a65726f206164647260008201527f6573730000000000000000000000000000000000000000000000000000000000602082015250565b7f45524332303a206275726e20616d6f756e7420657863656564732062616c616e60008201527f6365000000000000000000000000000000000000000000000000000000000000602082015250565b7f4f776e61626c653a206e6577206f776e657220697320746865207a65726f206160008201527f6464726573730000000000000000000000000000000000000000000000000000602082015250565b7f45524332303a20617070726f766520746f20746865207a65726f20616464726560008201527f7373000000000000000000000000000000000000000000000000000000000000602082015250565b7f416d6f756e74206d7573742062652067726561746572207468616e207a65726f600082015250565b7f45524332303a20696e73756666696369656e7420616c6c6f77616e6365000000600082015250565b7f45524332303a207472616e7366657220616d6f756e742065786365656473206260008201527f616c616e63650000000000000000000000000000000000000000000000000000602082015250565b7f496e76616c696420726563697069656e74206164647265737300000000000000600082015250565b7f4f776e61626c653a2063616c6c6572206973206e6f7420746865206f776e6572600082015250565b7f42726964676520616464726573732063616e6e6f74206265207a65726f000000600082015250565b7f44657374696e6174696f6e546f6b656e3a206f6e6c792074686520627269646760008201527f652063616e20747269676765722074686973206d6574686f6421000000000000602082015250565b7f45524332303a206275726e2066726f6d20746865207a65726f2061646472657360008201527f7300000000000000000000000000000000000000000000000000000000000000602082015250565b7f45524332303a207472616e736665722066726f6d20746865207a65726f20616460008201527f6472657373000000000000000000000000000000000000000000000000000000602082015250565b7f45524332303a20617070726f76652066726f6d20746865207a65726f2061646460008201527f7265737300000000000000000000000000000000000000000000000000000000602082015250565b7f45524332303a2064656372656173656420616c6c6f77616e63652062656c6f7760008201527f207a65726f000000000000000000000000000000000000000000000000000000602082015250565b7f45524332303a206d696e7420746f20746865207a65726f206164647265737300600082015250565b61250c81611fce565b811461251757600080fd5b50565b6125238161200c565b811461252e57600080fd5b5056fe546f6b656e73206275726e65642066726f6d2025732c20616d6f756e743a202573a264697066735822122036b84e034f6c0a464ca661aaa04ad092c0751d506b2828a93a0dcc7961387c1064736f6c63430008040033",
  "linkReferences": {},
  "deployedLinkReferences": {}
}